:04000000C3EF03F057
:08000800046ED8CF05F0E0CF33
:1000100006F00001E9CF0CF0EACF07F0E1CF08F0DD
:10002000E2CF09F0D9CF0AF0DACF0BF0F3CF12F01C
:10003000F4CF13F0FACF14F0F5CF15F0F6CF16F099
:10004000F7CF17F000C00EF001C00FF002C010F0A3
:1000500003C011F09DA430EF00F09EB457EF00F004
:100060000EC000F00FC001F010C002F011C003F08C
:100070000CC0E9FF07C0EAFF078E08C0E1FF09C016
:10008000E2FF0AC0D9FF0BC0DAFF12C0F3FF13C0B2
:10009000F4FF14C0FAFF15C0F5FF16C0F6FF17C035
:1000A000F7FF045006C0E0FF05C0D8FF10009E9483
:1000B00002011CC203F01B511B2BD8B41C2B406F38
:1000C00003C041F2D8904035026E0334036E0250F3
:1000D0001B0FE96E000E0320EA6E1950BE5C006E25
:1000E0001A50BF5800C0EFFFEC6EBFCF1AF0BECF62
:1000F00019F01B5305E11C2D03D021819484BD6AA6
:100100009E94000130EF00F00C45736372657665D4
:100110006E646F0050726F6E746F0000020EEA6EB4
:10012000230EE96EEF500EE00C0E016E006A002EF9
:10013000FED7012EFBD7F70E006E002EFED700D0A3
:10014000EF2EF2D71200949C8B9C080E016E00D00B
:100150000000018E10D0019E020133330001D8B09F
:100160008B8CD8A08B9C018C06D0019C012EF4D7DF
:1001700000D000008B8C010E006EE96AE92EFED7DC
:10018000002EFBD7530EE96EE92EFED700D00000FB
:1001900001BEE1D701BCE9D712000900F5520CE01D
:1001A000F6CF22F2F7CF23F2F5CF33F2CCDF22C223
:1001B000F6FF23C2F7FFF1D712008E0E006E23C2A6
:1001C00001F022C202F0036A015209E102C001F00B
:1001D000026A080E005E015202E1006A08D0D8905F
:1001E00001BE04D0023601360006F9D7019E5FEF4A
:1001F00006F002013351D8B471D0006E3751D8B433
:100200006DD0002604E3810E002668E204D07F0E44
:10021000005E64E363E034C23BF238513B1B348F31
:10022000388F36513A03F4CF3DF235513903F4CFCC
:1002300003F0F3CF3CF23A03F3503D27F4503C2354
:10024000000E032236513903F3503D27F4503C236E
:10025000000E026A0322022234513A03F3503C2773
:10026000F4500322000E022234513903F3500326C6
:10027000F4500222000E016A012236513803F35075
:100280003C27F4500322000E02220122355138038C
:10029000F3500326F4500222000E01223451380399
:1002A000F3500226F4500122002A01BE05D03C374B
:1002B0000336023601360006000E3CAF0AD0032A90
:1002C00002220122015005E1025003E1035001E145
:1002D000002A3BBF018E3BAF019E04D0006A016A39
:1002E000026A036A0001120002012651D8B4A5D0A7
:1002F000326F2A51D8B4A1D0325F05E37F0E322786
:10030000D8B09BD006D0810E325FD8A096D0D8B49A
:1003100094D032C200F0016A026A036A316B27C2CC
:1003200030F2308F28C22FF229C22EF2190E326F0E
:100330002D512E5F0DE2010E2F5F0AE2305F08E2C1
:10034000315F06E2312B302B2F2B2D512E2728D059
:100350002C512F5F12E2010E305F0FE2315F0DE290
:10036000312B302B2C512F272D512E2719E32F2BDA
:1003700017E1302B15E1312B13D02B518009305F61
:100380000EE2010E315F0BE2312B2B518009302739
:100390002C512F27E9E3302BE7E1312BE5D7038000
:1003A000322F01D00BD0D8902E372F37303731373E
:1003B000D8900336023601363337BAD733A106D088
:1003C000D890013202320332333302D0000635E0D6
:1003D00033BF1ED0D8902E372F37303731372D51BD
:1003E0002E5F07E2010E2F5F04E2305F02E2315F11
:1003F0001AE32C512F5F05E2010E305F02E2315FFC
:1004000012E32B518009305F03E2010E315F0BE3F1
:10041000032A09E1022A07E1012A05E1002A0DE089
:1004200001320232033227C232F22B51321B32AF79
:1004300002D0018E06D0019E04D0006A016A026AD1
:10044000036A000193EF06F002013351B608336FDF
:10045000036A34C237F2348FD890343335333633AD
:100460000332023201320032332FF6D737AF0BD0CE
:10047000001E011E021E031E002AD8B4012AD8B491
:10048000022AD8B4032A0001BBEF02F0D8B204D08C
:10049000020EEA6E3B0EE96E006A016A026A036AA6
:1004A00002013B6B3C6B3D6B3E6B3A51391138118D
:1004B00037112CE0200E3F6FD89033373437353763
:1004C00036373B373C373D373E373A513E5D08E1E2
:1004D00039513D5D05E138513C5D02E137513B5DED
:1004E0000FE337513B5F3851D8A0383D3C5F39515D
:1004F000D8A0393D3D5F3A51D8A03A3D3E5FD88003
:1005000000360136023603363F2FD6D73BC2EFFF07
:100510003CC2ECFF3DC2ECFF3EC2ECFF000112000A
:10052000E95002012B6F2A512D6F1BE029C236F2D0
:1005300028C235F227C234F226C233F23A6B396B45
:10054000200E386F820E376F000153DE03C029F290
:1005500002C028F201C027F200C026F202012D2FAE
:10056000E5D729C236F228C235F227C234F226C2B4
:1005700033F2000169D703C029F202C028F201C09A
:1005800027F200C026F2020129AF0DD02B072B8BDA
:10059000261F271F281F291F262BD8B4272BD8B486
:1005A000282BD8B4292B3B0E326F9A0E316FCA0E0E
:1005B000306F2F6B0A0E2D6F2A51D8B42B2BD88297
:1005C000020EEA6E260EE96E29C236F228C235F214
:1005D00027C234F226C233F232C23AF231C239F2C1
:1005E00030C238F22FC237F2000150DF0150005202
:1005F00013E102012A292D5DD8A402D000010CD0FC
:100600002B510DE00F0B2D5D01E040E22BBF3ED0E2
:100610002BBD05D0200E34D0200E02012B172BABA2
:100620000ED02B9B2A51D8A42B0700502B6F2D0ED8
:10063000336F000188DD02012B51006E2B6B2A51B4
:100640002D5D0CE100502B6F2E0E336F00017BDD12
:1006500002012B51006E200E2B17000E300E2BAB1B
:100660000FD02B9B2A51D8A42B0700502B6F2D0E97
:10067000336F000168DD02012B51006E2B6B300ED1
:10068000002600C033F200015EDD0201D89232C2C2
:1006900036F231C235F230C234F22FC233F23A6B45
:1006A000396B386B0A0E376F0001F0DE03C032F28F
:1006B00002C031F201C030F200C02FF202012D2F32
:1006C0007ED70001B1EF06F0EACF2EF2E9CF2DF28E
:1006D00002012739F009296F2927E20F2A6F320F0B
:1006E0002C6F27510F0B2A272A272C27E90F2B6F56
:1006F0002B272B2726390F0B2B272C272B372C3773
:100700002C1F2C3726510F0B2C272937070E286F4B
:100710000A0E2B072C27FDE32A072B27FDE32907C9
:100720002A27FDE328072927FDE3020EEA6E280E9B
:10073000E96E070E2D152D9DE9262C0EE95CD8B427
:100740002D8DEF50006E08E12DBD06D02DB915D0CE
:100750002DB702D0200E03D02D872D99300E002604
:10076000EACF27F2E9CF26F200C033F20001EBDC3A
:1007700027C2EAFF26C2E9FF0201EE502DADDDD708
:100780000001BEEF06F0F86AD09E078EEA6AE96AB9
:10079000949C8B8CC180C182C184C196196A1A6AEB
:1007A0001B6A1C6A1D6A1E6A1F6A206A216A226A05
:1007B000236A246A256A266A276A286A296A2A6AB5
:1007C0002B6A2C6A2D6A2E6A2F6A306A316A326A65
:1007D000336A346A356A366A376A386A396A3A6A15
:1007E0003B6A3C6A3D6A3E6A3F6A406A416A426AC5
:1007F000436A446A456A466A476A486A496A4A6A75
:100800004B6A4C6A4D6A4E6A4F6A506A516A526A24
:10081000536A546A556A566A576A586A596A5A6AD4
:100820005B6A5C6A5D6A5E6A5F6A606A616A626A84
:10083000636A646A656A666A676A686A696A6A6A34
:100840006B6A6C6A6D6A6E6A6F6A706A716A726AE4
:10085000736A746A756A766A776A786A796A7A6A94
:100860007B6A7C6A7D6A7E6A7F6A806B816B826B41
:10087000836B846B856B866B876B886B896B8A6BEC
:100880008B6B8C6B8D6B8E6B8F6B906B916B926B9C
:10089000936B946B956B966B976B986B996B9A6B4C
:1008A0009B6B9C6B9D6B9E6B9F6BA06BA16BA26BFC
:1008B000A36BA46BA56BA66BA76BA86BA96BAA6BAC
:1008C000AB6BAC6BAD6BAE6BAF6BB06BB16BB26B5C
:1008D000B36BB46BB56BB66BB76BB86BB96BBA6B0C
:1008E000BB6BBC6BBD6BBE6BBF6BC06BC16BC26BBC
:1008F000C36BC46BC56BC66BC76BC86BC96BCA6B6C
:10090000CB6BCC6BCD6BCE6BCF6BD06BD16BD26B1B
:10091000D36BD46BD56BD66BD76BD86BD96BDA6BCB
:10092000DB6BDC6BDD6BDE6BDF6BE06BE16BE26B7B
:10093000E36BE46BE56BE66BE76BE86BE96BEA6B2B
:10094000EB6BEC6BED6BEE6BEF6BF06BF16BF26BDB
:10095000F36BF46BF56BF66BF76BF86BF96BFA6B8B
:10096000FB6BFC6BFD6BFE6BFF6B0101006B016BA6
:10097000026B036B046B056B066B076B086B096BF3
:100980000A6B0B6B0C6B0D6B0E6B0F6B106B116BA3
:10099000126B136B146B156B166B176B186B196B53
:1009A0001A6B1B6B1C6B1D6B1E6B1F6B206B216B03
:1009B000226B236B246B256B266B276B286B296BB3
:1009C0002A6B2B6B2C6B2D6B2E6B2F6B306B316B63
:1009D000326B336B346B356B366B376B386B396B13
:1009E0003A6B3B6B3C6B3D6B3E6B3F6B406B416BC3
:1009F000426B436B446B456B466B476B486B496B73
:100A00004A6B4B6B4C6B4D6B4E6B4F6B506B516B22
:100A1000526B536B546B556B566B576B586B596BD2
:100A20005A6B5B6B5C6B5D6B5E6B5F6B606B616B82
:100A3000626B636B646B656B666B676B686B696B32
:100A40006A6B6B6B6C6B6D6B6E6B6F6B706B716BE2
:100A5000726B736B746B756B766B776B786B796B92
:100A60007A6B7B6B7C6B7D6B7E6B7F6B806B816B42
:100A7000826B836B846B856B866B876B886B896BF2
:100A80008A6B8B6B8C6B8D6B8E6B8F6B906B916BA2
:100A9000926B936B946B956B966B976B986B996B52
:100AA0009A6B9B6B9C6B9D6B9E6B9F6BA06BA16B02
:100AB000A26BA36BA46BA56BA66BA76BA86BA96BB2
:100AC000AA6BAB6BAC6BAD6BAE6BAF6BB06BB16B62
:100AD000B26BB36BB46BB56BB66BB76BB86BB96B12
:100AE000BA6BBB6BBC6BBD6BBE6BBF6BC06BC16BC2
:100AF000C26BC36BC46BC56BC66BC76BC86BC96B72
:100B0000CA6BCB6BCC6BCD6BCE6BCF6BD06BD16B21
:100B1000D26BD36BD46BD56BD66BD76BD86BD96BD1
:100B2000DA6BDB6BDC6BDD6BDE6BDF6BE06BE16B81
:100B3000E26BE36BE46BE56BE66BE76BE86BE96B31
:100B4000EA6BEB6BEC6BED6BEE6BEF6BF06BF16BE1
:100B5000F26BF36BF46BF56BF66BF76BF86BF96B91
:100B6000FA6BFB6BFC6BFD6BFE6BFF6B0201006BAA
:100B7000016B026B036B046B056B066B076B086BF9
:100B8000096B0A6B0B6B0C6B0D6B0E6B0F6B106BA9
:100B9000116B126B136B146B156B166B176B186B59
:100BA000196B1A6B1B6B1C6B1D6B1E6B21919E943A
:100BB0009D84C00EF2129484BD6A050EBD6EB50E02
:100BC000CD6E9380000E81A0010E236F000E21B127
:100BD000010E231159E0320E236F00018EEC00F05C
:100BE0009380000E81A0010E0201236F000E21B13F
:100BF000010E231149E0080EF66E010EF76E00019A
:100C0000CDEC00F00201236B1B0E23C220F21F6FFC
:100C100020C203F01FC2E9FF20C2EAFFEF522BE01F
:100C20001E51036E1D511D2BD8B41E2B226F03C005
:100C300023F220C203F01F51E96E03C0EAFFEFCF99
:100C400024F222C2A9FF24C2A8FFA69CA69EA684C5
:100C5000F250006EF29E0F01550EA76EAA0EA76EFF
:100C6000A682A6B2FED7A6940050F21202011F2B54
:100C7000D8B4202BCDD7140EF66E010EF76E0001FE
:100C8000CDEC00F003000201010E1B5D226F000E8F
:100C90001C59236FD8902235026E2335036E025003
:100CA0001B0FE96E000E0320EA6EECCF03F0ED524D
:100CB000EFCF22F203C023F20001DDEF00F000C00D
:100CC00022F201C023F202C024F203C025F203C0C5
:100CD00036F202C035F201C034F200C033F2020134
:100CE0003A6B396B386B820E376F0001F9EC00F00C
:100CF00000C022F201C023F202C024F203C025F298
:100D000003C029F202C028F201C027F200C026F277
:100D100002012D6B400E2C6F1C0E2B6F8C0E2A6F58
:100D2000000174EF01F000C022F201C023F202C002
:100D300024F203C025F20C0E0201336F0001A3EC74
:100D400000F0890EE96E25C229F224C228F223C2DE
:100D500027F222C226F2020E02012A6F000190EF52
:100D600002F00A0E0201336F0001A3EC00F0100E36
:100D7000E96E1CC227F21BC226F2A6D4020E0201A3
:100D8000226FFA0E236F00018EEC00F00201222F79
:060D9000F8D717D703009D
:020000040030CA
:0E00000000260E0E0001810000C00FE00F4030
:00000001FF
;PIC18F452
;CRC=9071  CREATED="08-abr-13 16:34"
