:0400000072EF00F0AB
:08000800046ED8CF05F0E0CF33
:1000100006F00001E9CF0CF0EACF07F0E1CF08F0DD
:10002000E2CF09F0D9CF0AF0DACF0BF0F3CF12F01C
:10003000F4CF13F0FACF14F0F5CF15F0F6CF16F099
:10004000F7CF17F000C00EF001C00FF002C010F0A3
:1000500003C011F09DA430EF00F09EB457EF00F004
:100060000EC000F00FC001F010C002F011C003F08C
:100070000CC0E9FF07C0EAFF078E08C0E1FF09C016
:10008000E2FF0AC0D9FF0BC0DAFF12C0F3FF13C0B2
:10009000F4FF14C0FAFF15C0F5FF16C0F6FF17C035
:1000A000F7FF045006C0E0FF05C0D8FF10009E9483
:1000B000CF6ACE6A197019B005D094948B84090E5A
:1000C000BD6E04D094948B94080EBD6E1A2AD8B4D9
:1000D0001B2A1A5204E11B2C02D09484BD6A9E9400
:1000E00030EF00F0F86AD09E078EEA6AE96AC180B4
:1000F000C182C184C19619901A6A1B6A9E949D841C
:10010000C00EF212B50ECD6EEA0EBF6E600EBE6E60
:10011000CF6ACE6A94948B84090EBD6EFFD7000E11
:04012000016E030069
:020000040030CA
:0E00000000260E0E0001810000C00FE00F4030
:00000001FF
;PIC18F452
;CRC=1602  CREATED="08-abr-13 16:25"
