:0400000081EF00F09C
:08000800046ED8CF05F0E0CF33
:1000100006F00001E9CF0CF0EACF07F0E1CF08F0DD
:10002000E2CF09F0D9CF0AF0DACF0BF0F3CF12F01C
:10003000F4CF13F0FACF14F0F5CF15F0F6CF16F099
:10004000F7CF17F000C00EF001C00FF002C010F0A3
:1000500003C011F09DA430EF00F09EB45DEF00F0FE
:10006000A0A036EF00F0A1B06FEF00F00EC000F0DE
:100070000FC001F010C002F011C003F00CC0E9FF86
:1000800007C0EAFF078E08C0E1FF09C0E2FF0AC00F
:10009000D9FF0BC0DAFF12C0F3FF13C0F4FF14C086
:1000A000FAFF15C0F5FF16C0F6FF17C0F7FF0450A2
:1000B00006C0E0FF05C0D8FF10009E94CF6ACE6A4C
:1000C000197019B005D094948B84090EBD6E04D0BC
:1000D00094948B94080EBD6E9E9436EF00F0A19020
:1000E000B36AB26A197219B205D094928B82090E62
:1000F000BA6E04D094928B92080EBA6EA19036EF2D
:1001000000F0F86AD09E078EEA6AE96AC180C1826F
:10011000C184C196199019929E949D84A190A0804B
:10012000C00EF212BD0EB16EB50ECD6E270EBC6EB6
:10013000100EBB6E4E0EBF6E200EBE6ECF6ACE6A24
:10014000B36AB26A94948B84090EBD6E94928B82CA
:0A015000BA6EFFD7000E016E030027
:020000040030CA
:0E00000000260E0E0001810000C00FE00F4030
:00000001FF
;PIC18F452
;CRC=6B66  CREATED="17-abr-13 17:39"
