:0400000097EF03F083
:08000800046ED8CF05F0E0CF33
:1000100006F00001E9CF0CF0EACF07F0E1CF08F0DD
:10002000E2CF09F0D9CF0AF0DACF0BF0F3CF12F01C
:10003000F4CF13F0FACF14F0F5CF15F0F6CF16F099
:10004000F7CF17F000C00EF001C00FF002C010F0A3
:1000500003C011F0F2AA30EF00F0F2B470EF00F03C
:10006000F2A836EF00F0F2B25DEF00F00EC000F043
:100070000FC001F010C002F011C003F00CC0E9FF86
:1000800007C0EAFF078E08C0E1FF09C0E2FF0AC00F
:10009000D9FF0BC0DAFF12C0F3FF13C0F4FF14C086
:1000A000FAFF15C0F5FF16C0F6FF17C0F7FF0450A2
:1000B00006C0E0FF05C0D8FF1000F292212AD8B494
:1000C000222A1CC020F01BC01FF01AC01EF019C04D
:1000D0001DF01C6A1B6A1A6A196AF29236EF00F068
:1000E000F294C50ED76E670ED66E010E1926D8B0E3
:1000F0001A2AD8B41B2AD8B41C2AF29436EF00F07E
:100100000C4469737061726F733A20254C7500005E
:100110000A0D54656D706F3A20252E336600949C4D
:100120008B9C080E016E00D00000018E0ED0019E47
:100130003432D8B08B8CD8A08B9C018C06D0019C1B
:10014000012EF6D700D000008B8C020E006EE96AFB
:10015000E92EFED7002EFBD700D001BEE8D701BCA8
:10016000EED712000900F6CF28F0F7CF29F0F5CF2F
:1001700034F0D5DF28C0F6FF29C0F7FF272EF2D7CD
:100180001200EACF2BF0E9CF2AF02438F009266ECE
:100190002626E20F276E320F296E24500F0B2726DA
:1001A00027262926E90F286E2826282623380F0B14
:1001B0002826292628362936291E293623500F0BB2
:1001C00029262636070E256E0A0E28062926FDE367
:1001D00027062826FDE326062726FDE325062626F4
:1001E000FDE3EA6A250EE96E070E2A142A9CE92629
:1001F000290EE95CD8B42A8CEF50006E08E12ABCC5
:1002000006D02AB813D02AB602D0200E03D02A86F0
:100210002A98300E0026EACF24F0E9CF23F000C060
:1002200034F07DDF24C0EAFF23C0E9FFEE502AACA2
:10023000DFD7CEEF03F0B60E006E036A026A016AE2
:10024000235024102510261002E1006A0DD0D8900A
:1002500001BE09D02336243625362636033602362B
:100260000136002EF4D7019ED7EF03F02750D8B403
:10027000A5D0336E2B50D8B4A1D0335E05E37F0EEA
:100280003326D8B09BD006D0810E335ED8A096D04E
:10029000D8B494D033C000F0016A026A036A326AAB
:1002A00028C031F0318E29C030F02AC02FF0190E4D
:1002B000336E2E502F5E0DE2010E305E0AE2315E8B
:1002C00008E2325E06E2322A312A302A2E502F26E8
:1002D00028D02D50305E12E2010E315E0FE2325E08
:1002E0000DE2322A312A2D5030262E502F2619E3C6
:1002F000302A17E1312A15E1322A13D02C50800917
:10030000315E0EE2010E325E0BE2322A2C50800981
:1003100031262D503026E9E3312AE7E1322AE5D7AC
:100320000380332E01D00BD0D8902F3630363136A3
:100330003236D8900336023601363436BAD734A076
:1003400006D0D890013202320332343202D0000695
:1003500035E034BE1ED0D8902F36303631363236A6
:100360002E502F5E07E2010E305E04E2315E02E2A3
:10037000325E1AE32D50305E05E2010E315E02E27C
:10038000325E12E32C508009315E03E2010E325ED0
:100390000BE3032A09E1022A07E1012A05E1002A09
:1003A0000DE001320232033228C033F02C50331AF0
:1003B00033AE02D0018E06D0019E04D0006A016ADD
:1003C000026A036AEEEF03F03450D8B471D0006EC5
:1003D0003850D8B46DD0002604E3810E002668E2C0
:1003E00004D07F0E005E64E363E035C03CF039501A
:1003F0003C1A358E398E37503B02F4CF3EF03650E2
:100400003A02F4CF03F0F3CF3DF03B02F3503E2627
:10041000F4503D22000E032237503A02F3503E269C
:10042000F4503D22000E026A0322022235503B02A4
:10043000F3503D26F4500322000E022235503A02BA
:10044000F3500326F4500222000E016A01223750B5
:100450003902F3503D26F4500322000E02220122FD
:1004600036503902F3500326F4500222000E0122C6
:1004700035503902F3500226F4500122002A01BE01
:1004800005D03D360336023601360006000E3DAE7D
:100490000AD0032A02220122015005E1025003E1A1
:1004A000035001E1002A3CBE018E3CAE019E04D007
:1004B000006A016A026A036AD9EF02F03450B60892
:1004C000346E036A35C038F0358ED8903532363206
:1004D00037320332023201320032342EF6D738AED0
:1004E0000BD0001E011E021E031E002AD8B4012AD2
:1004F000D8B4022AD8B4032AECEF02F0D8B203D061
:10050000EA6A3C0EE96E006A016A026A036A3C6AA2
:100510003D6A3E6A3F6A3B503A10391038102CE071
:10052000200E406ED89034363536363637363C3667
:100530003D363E363F363B503F5C08E13A503E5C2C
:1005400005E139503D5C02E138503C5C0FE3385026
:100550003C5E3950D8A0393C3D5E3A50D8A03A3C78
:100560003E5E3B50D8A03B3C3F5ED8800036013613
:1005700002360336402ED6D73CC0EFFF3DC0ECFF1D
:100580003EC0ECFF3FC0ECFF1200E9502C6E2B5038
:100590002E6E19E02AC037F029C036F028C035F099
:1005A00027C034F03B6A3A6A200E396E820E386EEC
:1005B0000BD703C02AF002C029F001C028F000C008
:1005C00027F02E2EE7D72AC037F029C036F028C0F2
:1005D00035F027C034F072D703C02AF002C029F0EA
:1005E00001C028F000C027F02AAE0DD02C062C8ABE
:1005F000271E281E291E2A1E272AD8B4282AD8B426
:10060000292AD8B42A2A3B0E336E9A0E326ECA0EAD
:10061000316E306A0A0E2E6E2B50D8B42C2AD88236
:10062000EA6A270EE96E2AC037F029C036F028C0E2
:1006300035F027C034F033C03BF032C03AF031C05F
:1006400039F030C038F05ADF015000520FE12B284A
:100650002E5C0CE02C500CE00F0B2E5C01E037E21E
:100660002CBE35D02CBC04D0200E2DD0200E2C1644
:100670002CAA0CD02C9A2B50D8A42C0600502C6EEF
:100680002D0E346E4CDD2C50006E2C6A2B502E5CDF
:100690000AE100502C6E2E0E346E41DD2C50006E9F
:1006A000200E2C16000E300E2CAA0DD02C9A2B509A
:1006B000D8A42C0600502C6E2D0E346E30DD2C503C
:1006C000006E2C6A300E002600C034F028DDD8926F
:1006D00033C037F032C036F031C035F030C034F0BE
:1006E0003B6A3A6A396A0A0E386E08DF03C033F093
:1006F00002C032F001C031F000C030F02E2E8FD792
:100700000AEF04F0EA6A240EE96EEF500EE0130ED1
:10071000016E006A002EFED7012EFBD7730E006E0D
:10072000002EFED70000EF2EF2D70FEF04F0F86A8C
:10073000D09E078EEA6AE96A949C8B8C000E7E6ECE
:10074000C198C19A7F50E00B7F6E799A79987A6A46
:100750007B6A196A1A6A1B6A1C6A1D6A1E6A1F6A0A
:10076000206A216A226AC50ED76E670ED66E800E89
:10077000D56EF294F292F288F19CF28AC00EF212D7
:10078000000EF66E010EF76E0B0E276EEBDC100EF0
:10079000E96E22C024F021C023F0F3D420C026F05B
:1007A0001FC025F01EC024F01DC023F044D500C09A
:1007B00023F001C024F002C025F003C026F003C0DE
:1007C0002AF002C029F001C028F000C027F02E6AEC
:1007D0002D6A7A0E2C6E880E2B6E48D500C023F041
:1007E00001C024F002C025F003C026F0100EF66E02
:1007F000010EF76E090E276EB5DC890EE96E26C074
:100800002AF025C029F024C028F023C027F0030EC9
:100810002B6EBBD6020E236EFA0E246E73D7232ED8
:06082000FBD7AED7030078
:020000040030CA
:0E00000000C61E1E008F81000FC00FE00F40D3
:00000001FF
;PIC18F45K20
;CRC=C9D7  CREATED="12-mar-13 15:22"
