:040000009DEF03F07D
:08000800046ED8CF05F0E0CF33
:1000100006F00001E9CF0CF0EACF07F0E1CF08F0DD
:10002000E2CF09F0D9CF0AF0DACF0BF0F3CF12F01C
:10003000F4CF13F0FACF14F0F5CF15F0F6CF16F099
:10004000F7CF17F000C00EF001C00FF002C010F0A3
:1000500003C011F0F2A830EF00F0F2B257EF00F059
:100060000EC000F00FC001F010C002F011C003F08C
:100070000CC0E9FF07C0EAFF078E08C0E1FF09C016
:10008000E2FF0AC0D9FF0BC0DAFF12C0F3FF13C0B2
:10009000F4FF14C0FAFF15C0F5FF16C0F6FF17C035
:1000A000F7FF045006C0E0FF05C0D8FF1000F29231
:1000B0001BC0D7FF1AC0D6FF242AD8B4252A1FC0D8
:1000C00023F01EC022F01DC021F01CC020F01F6ACA
:1000D0001E6A1D6A1C6AF29230EF00F0496E696375
:1000E000696F00004E656E68756D2064697370619C
:1000F000726F000054656D706F3A20252E32667362
:1001000000000A6E723A20254C750000EA6A270E3C
:10011000E96EEF500EE0130E016E006A002EFED75E
:10012000012EFBD7730E006E002EFED70000EF2EBF
:10013000F2D71200949C8B9C080E016E00D0000038
:10014000018E0ED0019E3732D8B08B8CD8A08B9CFC
:10015000018C06D0019C012EF6D700D000008B8CBC
:10016000020E006EE96AE92EFED7002EFBD700D002
:1001700001BEE8D701BCEED712000900F5520CE031
:10018000F6CF26F0F7CF27F0F5CF37F0D3DF26C034
:10019000F6FF27C0F7FFF1D71200B60E006E036A14
:1001A000026A016A265027102810291002E1006A0D
:1001B0000DD0D89001BE09D02636273628362936EC
:1001C000033602360136002EF4D7019EE8EF03F025
:1001D0002A50D8B4A5D0366E2E50D8B4A1D0365EF1
:1001E00005E37F0E3626D8B09BD006D0810E365E52
:1001F000D8A096D0D8B494D036C000F0016A026A74
:10020000036A356A2BC034F0348E2CC033F02DC015
:1002100032F0190E366E3150325E0DE2010E335E51
:100220000AE2345E08E2355E06E2352A342A332AD1
:100230003150322628D03050335E12E2010E345E47
:100240000FE2355E0DE2352A342A30503326315024
:10025000322619E3332A17E1342A15E1352A13D05F
:100260002F508009345E0EE2010E355E0BE2352A16
:100270002F508009342630503326E9E3342AE7E151
:10028000352AE5D70380362E01D00BD0D8903236F0
:10029000333634363536D8900336023601363736A3
:1002A000BAD737A006D0D8900132023203323732A3
:1002B00002D0000635E037BE1ED0D8903236333635
:1002C000343635363150325E07E2010E335E04E2D9
:1002D000345E02E2355E1AE33050335E05E2010E11
:1002E000345E02E2355E12E32F508009345E03E291
:1002F000010E355E0BE3032A09E1022A07E1012A18
:1003000005E1002A0DE00132023203322BC036F043
:100310002F50361A36AE02D0018E06D0019E04D080
:10032000006A016A026A036AFFEF03F00900F6CF70
:100330002BF0F7CF2CF0F5CF37F0FCDE2BC0F6FF1B
:100340002CC0F7FF2A2EF2D712003750D8B471D044
:10035000006E3B50D8B46DD0002604E3810E002619
:1003600068E204D07F0E005E64E363E038C03FF0D3
:100370003C503F1A388E3C8E3A503E02F4CF41F04A
:1003800039503D02F4CF03F0F3CF40F03E02F3507A
:100390004126F4504022000E03223A503D02F35011
:1003A0004126F4504022000E026A032202223850F5
:1003B0003E02F3504026F4500322000E0222385031
:1003C0003D02F3500326F4500222000E016A01227E
:1003D0003A503C02F3504026F4500322000E022211
:1003E000012239503C02F3500326F4500222000E41
:1003F000012238503C02F3500226F4500122002A18
:1004000001BE05D040360336023601360006000E26
:1004100040AE0AD0032A02220122015005E1025017
:1004200003E1035001E1002A3FBE018E3FAE019E71
:1004300004D0006A016A026A036A9AEF02F0375038
:10044000B608376E036A38C03BF0388ED890383221
:1004500039323A320332023201320032372EF6D7C5
:100460003BAE0BD0001E011E021E031E002AD8B494
:10047000012AD8B4022AD8B4032AADEF02F0D8B2C8
:1004800003D0EA6A3F0EE96E006A016A026A036AF3
:100490003F6A406A416A426A3E503D103C103B1040
:1004A0002CE0200E436ED8903736383639363A363F
:1004B0003F364036413642363E50425C08E13D50C0
:1004C000415C05E13C50405C02E13B503F5C0FE386
:1004D0003B503F5E3C50D8A03C3C405E3D50D8A0D5
:1004E0003D3C415E3E50D8A03E3C425ED880003646
:1004F000013602360336432ED6D73FC0EFFF40C049
:10050000ECFF41C0ECFF42C0ECFF1200E9502F6E3F
:100510002E50316E19E02DC03AF02CC039F02BC0AE
:1005200038F02AC037F03E6A3D6A200E3C6E820EDB
:100530003B6E0BD703C02DF002C02CF001C02BF096
:1005400000C02AF0312EE7D72DC03AF02CC039F088
:100550002BC038F02AC037F072D703C02DF002C08C
:100560002CF001C02BF000C02AF02DAE0DD02F06CC
:100570002F8A2A1E2B1E2C1E2D1E2A2AD8B42B2A67
:10058000D8B42C2AD8B42D2A3B0E366E9A0E356E6E
:10059000CA0E346E336A0A0E316E2E50D8B42F2A2A
:1005A000D882EA6A2A0EE96E2DC03AF02CC039F0E2
:1005B0002BC038F02AC037F036C03EF035C03DF0D1
:1005C00034C03CF033C03BF05ADF015000520FE121
:1005D0002E28315C0CE02F500CE00F0B315C01E059
:1005E00037E22FBE35D02FBC04D0200E2DD0200EE8
:1005F0002F162FAA0CD02F9A2E50D8A42F060050B9
:100600002F6E2D0E376E96DD2F50006E2F6A2E50F6
:10061000315C0AE100502F6E2E0E376E8BDD2F50AD
:10062000006E200E2F16000E300E2FAA0DD02F9A1E
:100630002E50D8A42F0600502F6E2D0E376E7ADD67
:100640002F50006E2F6A300E002600C037F072DD8A
:10065000D89236C03AF035C039F034C038F033C0E3
:1006600037F03E6A3D6A3C6A0A0E3B6E08DF03C003
:1006700036F002C035F001C034F000C033F0312E46
:100680008FD71BEF04F0EACF2EF0E9CF2DF02738FB
:10069000F009296E2926E20F2A6E320F2C6E2750A0
:1006A0000F0B2A262A262C26E90F2B6E2B262B260B
:1006B00026380F0B2B262C262B362C362C1E2C36B0
:1006C00026500F0B2C262936070E286E0A0E2B06F5
:1006D0002C26FDE32A062B26FDE329062A26FDE328
:1006E00028062926FDE3EA6A280EE96E070E2D1476
:1006F0002D9CE9262C0EE95CD8B42D8CEF50006EB1
:1007000008E12DBC06D02DB813D02DB602D0200E96
:1007100003D02D862D98300E0026EACF27F0E9CFA2
:1007200026F000C037F006DD27C0EAFF26C0E9FF4B
:10073000EE502DACDFD72CEF04F0F86AD09E078E78
:10074000EA6AE96A949C8B8C810E196E6D0E1B6EA1
:10075000830E1A6E000E7E6EC198C19A7F50E00B18
:100760007F6E799A79987A6A7B6A1C6A1D6A1E6A1A
:100770001F6A206A216A226A236A246A256A040E93
:10078000266EFA0E276EC2DC262EFBD7DC0EF66E26
:10079000000EF76EF2DCF292F288F18CC00EF212CB
:1007A0004F0E376EC7DC6B0E376EC4DC245025103D
:1007B00006E1E40EF66E000EF76EDFDC4DD023C0CE
:1007C00029F022C028F021C027F020C026F0E5D46F
:1007D00000C026F001C027F002C028F003C029F0B5
:1007E00003C02DF002C02CF001C02BF000C02AF095
:1007F000316A306A480E2F6E850E2E6EE9D400C025
:1008000026F001C027F002C028F003C029F0F40E42
:10081000F66E000EF76E070E2A6E88DD890EE96E01
:1008200029C02DF028C02CF027C02BF026C02AF0BC
:10083000020E2E6E6BD6730E376E7CDC020EF66ED9
:10084000010EF76E050E2A6E71DD100EE96E25C0E1
:1008500027F024C026F017D7020E266EFA0E276E58
:0E08600055DC262EFBD7A2D7000E016E03003A
:020000040030CA
:0E00000000C61E1E008F81000FC00FE00F40D3
:00000001FF
;PIC18F45K20
;CRC=BD5A  CREATED="12-mar-13 14:27"
